:100000000C9466000C948E000C948E000C94B80432
:100010000C94B8040C94B8040C948E000C948E00CC
:100020000C948E000C948E000C948E000C948E0018
:100030000C948E000C948E000C948E000C948E0008
:100040000C9416040C948E000C9486040C9460049A
:100050000C948E000C948E000C948E000C948E00E8
:100060000C948E000C948E00000000080002010029
:100070000003040700000000000000000000000072
:10008000250028002B0000000000240027002A0083
:10009000040404040404040402020202020203032E
:1000A0000303030301020408102040800102040836
:1000B00010200102040810201112131415160A0B47
:1000C0000C0D0E0F000102030405C20411241FBE13
:1000D000CFEFD8E0DEBFCDBF22E0A0E3B1E001C0AA
:1000E0001D92A535B207E1F711E0A0E0B1E0E4EC24
:1000F000FFE002C005900D92A033B107D9F710E0E0
:10010000C6E6D0E004C02197FE010E94D507C5369F
:10011000D107C9F70E9412050C94E0070C94000067
:1001200090E0FC01EC55FF4F2491FC01E057FF4F9C
:100130008491882399F090E0880F991FFC01EA5779
:10014000FF4FA591B491FC01E458FF4F8591949124
:100150008FB7F894EC91E22BEC938FBF089590E069
:10016000FC01E859FF4F2491FC01EC55FF4F3491FD
:10017000FC01E057FF4FE491EE2309F43CC0222339
:1001800039F1233091F038F42130A9F0223001F513
:1001900084B58F7D12C0273091F02830A1F0243033
:1001A000B9F4809180008F7D03C0809180008F77AB
:1001B000809380000DC084B58F7784BD09C0809185
:1001C000B0008F7703C08091B0008F7D8093B00026
:1001D000F0E0EE0FFF1FE458FF4FA591B4919FB7D9
:1001E000F894611104C08C913095382302C0EC91D1
:1001F0003E2B3C939FBF08952091390230913A02E3
:1002000040913B0250913C022417350721F0682FA2
:10021000822F0C94AF0008958230910538F0880F3A
:10022000991F880F991F05970197F1F70895CF93AC
:10023000DF939CB59F7D9CBD9CB5937F9CBD9CB579
:100240009C7F9CBD9DB591609DBDC9E3D2E0682FA8
:100250008A810E94AF008C899D89DF91CF910C9497
:100260000C0181E00C94170180E00C9417013FB75A
:10027000F8948091980190919901A0919A01B09180
:100280009B0126B5A89B05C02F3F19F00196A11D23
:10029000B11D3FBFBA2FA92F982F8827820F911D1C
:1002A000A11DB11DBC01CD0142E0660F771F881F63
:1002B000991F4A95D1F708958F929F92AF92BF925E
:1002C000CF92DF92EF92FF926B017C010E94370187
:1002D0004B015C01C114D104E104F104F1F00E946E
:1002E0003701DC01CB0188199909AA09BB09883EAD
:1002F0009340A105B10570F321E0C21AD108E108CD
:10030000F10888EE880E83E0981EA11CB11CC11470
:10031000D104E104F10419F7DDCFFF90EF90DF90F5
:10032000CF90BF90AF909F908F9008952FB7F89483
:10033000609194017091950180919601909197013F
:100340002FBF0895CF92DF92EF92FF920F931F93EA
:10035000CF93DF936C017A018B01C0E0D0E0CE1522
:10036000DF0581F0D8016D918D01D601ED91FC91F1
:100370000190F081E02DC6010995892B11F021969D
:10038000EECF7E01C701DF91CF911F910F91FF90BA
:10039000EF90DF90CF900895FC01538D448D252F71
:1003A00030E0842F90E0821B930B541710F0CF960F
:1003B000089501970895FC01918D828D981761F041
:1003C000828DDF01A80FB11D5D968C91928D9F5F8C
:1003D0009F73928F90E008958FEF9FEF0895FC0137
:1003E000918D828D981731F0828DE80FF11D858DEA
:1003F00090E008958FEF9FEF0895FC01918D228D7D
:10040000892F90E0805C9F4F821B91098F73992701
:1004100008958CE991E00E94FD0121E0892B09F407
:1004200020E0822F0895FC01848DDF01A80FB11D0B
:10043000A35ABF4F2C91848D90E001968F7399271A
:10044000848FA689B7892C93A089B1898C918370F8
:1004500080648C93938D848D981306C00288F389F1
:10046000E02D80818F7D80830895EF92FF920F931E
:100470001F93CF93DF93EC0181E0888F9B8D8C8D50
:10048000981305C0E889F989808185FD26C0F62E7C
:100490000B8D10E00F5F1F4F0F731127E02E8C8D17
:1004A000E8120CC00FB607FCFACFE889F989808101
:1004B00085FFF5CFCE010E941302F1CF8B8DFE0197
:1004C000E80FF11DE35AFF4FF0829FB7F8940B8FAE
:1004D000EA89FB89808180620AC09FB7F894EE891F
:1004E000FF896083E889F9898081837080648083D3
:1004F0009FBF81E090E0DF91CF911F910F91FF901E
:10050000EF900895CF93DF93EC01888D8823C9F095
:10051000EA89FB89808185FD05C0A889B9898C910C
:1005200086FD0FC00FB607FCF5CF808185FFF2CFA7
:10053000A889B9898C9185FFEDCFCE010E94130265
:10054000E7CFDF91CF91089580E090E0892B29F0EB
:100550000E94090281110C94000008958EBD0000D4
:100560000DB407FEFDCF8EB50895CF930E943401E0
:1005700081EE0E94AE02C82F0E9431018C2FCF91D4
:100580000895CF93C82F0E9434018C2F8F710E9441
:10059000AE028FEF0E94AE02C82F0E9431018C2F55
:1005A000CF910895CF93DF93C82FD62F0E943401A7
:1005B0008C2F8F7180620E94AE02C82F8D2F0E94F7
:1005C000AE020E9431018C2FDF91CF91089580E01F
:1005D0000E94C10281FD0BC0682F626080E00E9412
:1005E000D20265E070E080E090E00C945C01089538
:1005F0000F931F93CF938C0186E00E94C102C82FF6
:10060000C77D0230110531F4C0628BE990E0A0E0B3
:10061000B0E00DC00130110529F085E590E0A0E0C3
:10062000B0E005C0C86081E490E0A0E0B0E0809355
:10063000490290934A02A0934B02B0934C026C2F54
:1006400086E00E94D20286E00E94C10291E0C813B7
:1006500090E0892FCF911F910F910895EF92FF9213
:100660000F931F93CF93DF93182F7B01C42F0E940A
:100670003401812F8F7180620E94AE02D82F8701D2
:10068000CC2339F0F80181918F010E94AE02C15054
:10069000F7CF0E9431018D2FDF91CF911F910F91E4
:1006A000FF90EF9008950E94E70280E00E94C1024F
:1006B000682F616080E00E94D20260E787E00E94BC
:1006C000D20281E00E94FC0080914202882341F026
:1006D0004091470262E472E08AE00E942E0312C059
:1006E00082E00E94C102E4ECF0E0E49121E030E01D
:1006F00001C0220FEA95EAF72095622F682382E075
:100700000E94D2028DE10E94C10281FD0C94B502CB
:1007100008950F931F93CF93DF938C01C9E3D2E029
:100720004E85BC018AE00E942E034E85B80180E10F
:100730000E942E036F8181E1DF91CF911F910F9174
:100740000C94D202089580E090E008951F93CF9317
:10075000DF93CDB7DEB766970FB6F894DEBF0FBE56
:10076000CDBF10E81C8B83E88D8B42E050E0BE01CA
:100770006C5E7F4F8CE991E00E94A20164E670E01C
:1007800080E090E00E945C0183E1E0E0F1E0DE01C6
:10079000119601900D928A95E1F743E150E0BE0178
:1007A0006F5F7F4F8CE991E00E94A20168EE73E0D9
:1007B00080E090E00E945C011E8B41E050E0BE01B1
:1007C0006A5E7F4F8CE991E00E94A20166960FB6A7
:1007D000F894DEBF0FBECDBFDF91CF911F9108957A
:1007E000CF93DF93EFEBF0E0E491C9E3D2E04E85E5
:1007F000BC018E2F0E942E03E9EBF0E084916F8103
:100800000E94D20282E00E94C102E5ECF0E0E49195
:1008100061E070E001C0660FEA95EAF7682B82E0BC
:10082000DF91CF910C94D2020E94DB071F920F92AE
:100830000FB60F9211242F933F938F939F93AF93F3
:10084000BF938091940190919501A0919601B091F0
:1008500097013091930123E0230F2D3720F4019667
:10086000A11DB11D05C026E8230F0296A11DB11DD3
:10087000209393018093940190939501A093960106
:10088000B09397018091980190919901A0919A015C
:10089000B0919B010196A11DB11D80939801909389
:1008A0009901A0939A01B0939B01BF91AF919F9141
:1008B0008F913F912F910F900FBE0F901F90189521
:1008C0001F920F920FB60F9211242F933F934F93C5
:1008D0005F936F937F938F939F93AF93BF93EF93A8
:1008E000FF938CE991E00E941302FF91EF91BF9179
:1008F000AF919F918F917F916F915F914F913F91B8
:100900002F910F900FBE0F901F9018951F920F926E
:100910000FB60F9211242F938F939F93EF93FF9312
:10092000E091AC01F091AD018081E091B201F091D4
:10093000B30182FD12C090818091B5018F5F8F73EA
:100940002091B601821751F0E091B501F0E0E45634
:10095000FE4F958F8093B50101C08081FF91EF918B
:100960009F918F912F910F900FBE0F901F90189510
:100970001F920F920FB60F9211240F900FBE0F907F
:100980001F901895ECE9F1E01382128288EE93E053
:10099000A0E0B0E084839583A683B78381E291E0F1
:1009A0009183808385EC90E09587848784EC90E048
:1009B0009787868780EC90E0918B808B81EC90E02C
:1009C000938B828B82EC90E0958B848B86EC90E00D
:1009D000978B868B118E128E138E148E0E94960129
:1009E0006093510270935202809353029093540289
:1009F000E9E3F2E08AE090E09183808389E090E08F
:100A000093838283168280E28783108685E08687BF
:100A100085E090E0A0E0B0E0848B958BA68BB78B4F
:100A200011860895789484B5826084BD84B5816010
:100A300084BD85B5826085BD85B5816085BD8091A9
:100A40006E00816080936E00109281008091810021
:100A50008260809381008091810081608093810019
:100A6000809180008160809380008091B1008460DB
:100A70008093B1008091B00081608093B00080913C
:100A80007A00846080937A0080917A0082608093FB
:100A90007A0080917A00816080937A0080917A0058
:100AA000806880937A001092C100E091AC01F091CF
:100AB000AD0182E08083E091A801F091A90110824C
:100AC000E091AA01F091AB0180E180831092B40122
:100AD000E091B001F091B10186E08083E091AE0138
:100AE000F091AF01808180618083E091AE01F0914F
:100AF000AF01808188608083E091AE01F091AF0109
:100B0000808180688083E091AE01F091AF018081A7
:100B10008F7D808387E00E94900061E087E00E94E3
:100B2000AF008091390290913A0220913B023091BE
:100B30003C028217930711F00E94900080913B02C3
:100B400090913C022091390230913A0228173907DE
:100B500011F00E949000CFB7F8948091320181117A
:100B600024C0EAE9F0E08491EEEAF0E09491E82F05
:100B7000F0E0EE0FFF1FEA57FF4FA591B491EC9103
:100B8000E92321F461E08AE00E94AF008AE00E943C
:100B900090008CB580618CBD8CB580648CBD8DE07F
:100BA0000E9490008BE00E949000809132018F5F44
:100BB00080933201CFBF80E00E94FC0081E00E9460
:100BC000170165E070E080E090E00E945C016CE05D
:100BD00080E00E94D2026FE584E00E94D20282E0AF
:100BE00090E00E94F802882319F081E080933F0290
:100BF00086E00E94C10280E090E00E94F8020E941C
:100C0000340180E50E94AE0283E70E94AE020E949A
:100C1000310160E08DE10E94D20260E08CE10E942F
:100C2000D2021092410260E787E00E94D2026CE497
:100C300085E00E94D2020E94340182EE0E94AE0240
:100C40000E9431010E94B5020E94E70280E00E94EA
:100C5000C102682F6E7F80E00E94D2028DE10E9467
:100C6000C102682F64608DE10E94D2028CE10E9473
:100C7000C102682F6F638CE10E94D20281E08093F1
:100C8000410281E090E00E94F8026CE685E00E945B
:100C9000D20283E191E00E94890388E191E00E9401
:100CA000F0030E9453030E94A60388248394912C8E
:100CB00034ECA32E30E0B32E87E10E94C102182F3E
:100CC000117080FFFFC00FC02F3F09F05EC140913F
:100CD00073014F71042E000C550B64E771E08CE931
:100CE00091E00E94A2018CE991E00E94FD01EC01DB
:100CF0000E949601009151021091520220915302DC
:100D000030915402DC01CB01801B910BA20BB30B81
:100D100021E030E08B3F9105A105B10510F420E002
:100D200030E0C223D323CD2B09F4C9C088E191E080
:100D30000E94890383E191E00E94F00380E00E9419
:100D4000FC008091490290914A020E940C018DE1C1
:100D50000E94C10281FF08C08091490290914A021D
:100D60000E940C010E94B50280E00E94C102682F1F
:100D70006E7F80E00E94D20282E00E94C102F501F3
:100D80009491940101C0220F9A95EAF7682F622B83
:100D900082E00E94D2028CE991E00E94FD01EC0108
:100DA0001C161D060CF077C08E01C132D10514F05F
:100DB00000E210E083E3C82E81E0D82E76010E9485
:100DC00096016093A4017093A5018093A60190936E
:100DD000A7018CE991E00E94DB0197FFDBC00E9434
:100DE00096014090A4015090A5016090A6017090DA
:100DF000A701DC01CB0184199509A609B709409028
:100E0000A0015090A1016090A2017090A3018415EF
:100E10009505A605B705E8F2F0904002E02EF01621
:100E200008F4EF2C80914102811102C0FE1801C02C
:100E3000F12C0E94340180EA0E94AE02EE2039F0CB
:100E4000F60181916F010E94AE02EA94F7CFFF2074
:100E500029F080E00E94AE02FA94F9CF0E9431019D
:100E600081E00E94FC000E9434018FEF0E94AE02DC
:100E7000F82E0E9431018F2D8073A9F380E00E942B
:100E8000FC0060E787E00E94D20284FD0E94B50268
:100E9000C01BD10B85CF83E191E00E94890388E1DB
:100EA00091E00E94F0030E9453030E949601609318
:100EB00051027093520280935302909354020E9405
:100EC000A402FACE0E94340180E60E94AE028FEFA7
:100ED0000E94AE02C82F0E943101C13208F458C0EE
:100EE0000E94340182EE0E94AE020E94310162E053
:100EF00070E080E090E00E945C01C0914002D12F40
:100F0000C11708F4DC2F80914102811102C0CD1B72
:100F100001C0C0E00E94340181E60E94AE0293E766
:100F2000E92E91E0F92EDD2341F08FEF0E94AE0211
:100F3000F70181937F01D150F6CFCC2329F08FEFB9
:100F40000E94AE02C150F9CF0E94310160E787E0F4
:100F50000E94D2028091730185FF08C060E087E0A3
:100F60000E94AF0061E087E00E94AF00812F90E017
:100F7000E3E7F1E020E0AF0143575140481759073C
:100F800008F0A2CE3191230FF6CF0E94A603ABCE7C
:100F90001C2FB3CFF70181937F01CF018353914081
:100FA0008017910708F40BCF37CFEE0FFF1F059086
:100FB000F491E02D099481E090E0F8940C94E0071E
:040FC000F894FFCFD3
:100FC4008C010728084008280834082808340840F9
:100FD400088D014142434445464748494A000000C0
:100FE400003502A201CC018202FD01DB01EF010008
:00000001FF
